:100000000C9434000C9451000C9451000C94510049
:100010000C9451000C9451000C9451000C9451001C
:100020000C9451000C9451000C9451000C9451000C
:100030000C9451000C9451000C9451000C945100FC
:100040000C9451000C9451000C9451000C945100EC
:100050000C9451000C9451000C9451000C945100DC
:100060000C9451000C94510011241FBECFEFD8E026
:10007000DEBFCDBF12E0A0E0B1E0ECEEFAE102C0DD
:1000800005900D92A239B107D9F722E0A2E9B2E0BA
:1000900001C01D92AE3AB207E1F70E9480040C94B1
:1000A000740D0C9400005E9A5F9A2FEF80E792E047
:1000B000215080409040E1F700C000005E985F98BA
:1000C000089587B1807F87B988B18F6088B984B17E
:1000D0008C7384B985B1836C85B908958CE284B939
:1000E00081E58CBD08958EBD0DB407FEFDCF08954A
:1000F00080E00E9473000DB407FEFDCF8EB5089519
:10010000CF93C62F2A98880F8E770E9473008C2F6A
:100110000E9473002A9ACF9108956FE081E00C94B9
:1001200080002A98880F8E7780680E9473000E9452
:1001300078002A9A0895CF93DF93D82FC62F0E9474
:100140009100682F6C2B8D2FDF91CF910C94800044
:10015000CF93DF93D82FC62F0E949100C0956C2FAC
:1001600068238D2FDF91CF910C94800084E10E9451
:100170009100837021F463E084E10C949B00089566
:100180000E948D006DE88AE20E9480006EE38BE29F
:100190000E9480006EE18DE20E94800060E08CE2AF
:1001A0000E94800060E485E10E9480006DE381E1AF
:1001B0000E9480000C94B6008F929F92AF92BF92E3
:1001C000CF92DF92EF92FF920F931F93CF93DF9323
:1001D000D82F862EB72EA42E690190E3992EC7E75B
:1001E0008C3039F020E1922EC2E18E3011F0912C4A
:1001F000C0E06C2F606882E00E94800060E884E0CC
:100200000E94A80060E88AE00E949B0060E081E014
:100210000E948000E82CFB2CAE0CBF2CB11CAE144D
:10022000BF0409F05AC06D2F81E00E948000DC30CD
:1002300021F460E88DE00E949B0080EDF82E689428
:1002400090F884E00E949100E82EFA94FF2019F0C3
:10025000892D8E21B1F360E88DE00E94A800FF2077
:1002600009F447C086E00E9491008B7109F041C0FB
:10027000C170CE21DC3019F58AE00E949100D82FA0
:100280008CE00E949100982F977071F18FE18D0F93
:10029000880F880F880F890FF8018083DD2359F1BB
:1002A000D13108F0D0E11C2D760189E00E94910047
:1002B000F70181937F018E2F811B8D17B0F38C2F57
:1002C000DF91CF911F910F91FF90EF90DF90CF9032
:1002D000BF90AF909F908F900895F70161917F013B
:1002E00089E00E9480009BCF8D2F880F880F880F98
:1002F000D3CFC2E0E4CF89E00E949100F601808371
:10030000DECFEF92FF920F931F93CF93DF931F9255
:10031000CDB7DEB7182F7B0167E08DE00E9480002B
:10032000F70110838E010F5F1F4F970141E0B70166
:100330008CE00E94DC00811103C09981903109F0AA
:1003400082E00F90DF91CF911F910F91FF90EF907E
:100350000895EF92FF920F931F93CF93DF931F9215
:10036000CDB7DEB77C0160E08DE00E94800083E9BC
:10037000F701808380E281838E010F5F1F4F970119
:1003800042E0B7018CE00E94DC0081110EC0F70151
:1003900097012C5F3F4F90E041919427E217F307BC
:1003A000D9F7F7012481921382E00F90DF91CF916A
:1003B0001F910F91FF90EF9008958AB1886E8AB9CE
:1003C0000895833071F45B9A5F9A2FEF80E792E093
:1003D000215080409040E1F700C000005B985F989A
:1003E0000895853069F45D9A5F9A2FEF80E792E077
:1003F000215080409040E1F700C000005D98EFCFB1
:10040000863011F40C94530008951092B90088E4DA
:100410008093B800089594EA9093BC009091BC003A
:1004200097FFFCCF8093BB0084E88093BC00809151
:10043000BC0087FFFCCF089584E98093BC008091C5
:10044000BC0084FDFCCF08958093BB0084E88093BA
:10045000BC008091BC0087FFFCCF08951F93CF9311
:10046000DF93C82F8EE40E940B021C2F107FD12F28
:10047000D8608D2F0E942402812F8C600E9424025C
:100480008D2F0E94240280E1C89FE0011124DC2FFF
:10049000D8608D2F0E9424028C2F8C600E94240231
:1004A0008D2F0E942402DF91CF911F910C941C028A
:1004B0002FEF80E792E0215080409040E1F700C0AC
:1004C000000083E00E942E028FE19EE40197F1F785
:1004D00000C0000083E00E942E0287E592E00197B1
:1004E000F1F700C0000083E00E942E0282E00E942B
:1004F0002E0288E20E942E028CE00E942E0286E0EC
:100500000E942E0281E00E942E028FE39FE101975C
:10051000F1F700C0000008951F93CF93DF93C82F19
:100520008EE40E940B021C2F107FD12FD9608D2FDB
:100530000E942402812F8D600E9424028D2F0E9430
:10054000240280E1C89FE0011124DC2FD9608D2FA7
:100550000E9424028C2F8D600E9424028D2F0E9405
:100560002402DF91CF911F910C941C02CF93DF9353
:10057000EC018991811103C0DF91CF9108950E9410
:100580008C02F7CF811104C080E8860F0C942E02F4
:1005900080ECFBCF81E00E942E028FE39FE1019768
:1005A000F1F700C0000008958F929F92AF92BF9222
:1005B000CF92DF92EF92FF920F931F93CF93DF932F
:1005C000CDB7DEB761970FB6F894DEBF0FBECDBFD3
:1005D0006C01862E942E7901FC0101900020E9F730
:1005E0003197E81BF90B8F011127C80141960E9432
:1005F0000C095C010097E1F1B6010E94490A6CE028
:1006000071E0C5010E943E0AF70160816A0D7B2DF1
:10061000711D40E150E0CE0101960E94500A198AF6
:1006200060E0882D0E94C202CE0101960E94B602AF
:10063000F70180818F5F090D111D80171106B4F439
:100640008083C50161960FB6F894DEBF0FBECDBFA3
:10065000DF91CF911F910F91FF90EF90DF90CF909E
:10066000BF90AF909F908F900C94A8091082E9CF13
:1006700061960FB6F894DEBF0FBECDBFDF91CF916C
:100680001F910F91FF90EF90DF90CF90BF90AF90B0
:100690009F908F9008950F931F93CF938C0184E6C2
:1006A00090E00E941D0DC82F85E0C89FB001112465
:1006B0006050704045E050E0C8010E94250D61E0A7
:1006C0006C0F84E690E00E942F0DEC2FF0E0EA56CC
:1006D000FD4F1082CF911F910F910895CF92DF921D
:1006E000EF92FF920F931F93CF93DF9300D000D030
:1006F0001F92CDB7DEB76C0184E690E00E941D0D1D
:10070000082F80E0E82E80E0F82E10E0101310C0D3
:100710001FEF812F0F900F900F900F900F90DF9190
:10072000CF911F910F91FF90EF90DF90CF900895A0
:1007300045E050E0B701CE0101960E940D0D45E065
:1007400050E0BE016F5F7F4FC6010E94310A25E075
:10075000E20EF11C892BE9F21F5FD8CFAF92BF9256
:10076000CF92DF92EF92FF920F931F93CF93DF937D
:1007700000D000D01F92CDB7DEB75C0184E690E0D8
:100780000E941D0D90E0C92E90E0D92E10E000E0EF
:10079000E82EF12C0E151F058CF080E00F900F90C5
:1007A0000F900F900F90DF91CF911F910F91FF90BD
:1007B000EF90DF90CF90BF90AF90089545E050E06C
:1007C000B601CE0101960E940D0D45E050E0BE013C
:1007D0006F5F7F4FC5010E94310A25E0C20ED11C18
:1007E000892B19F00F5F1F4FD5CF81E0D7CF45E0A0
:1007F00050E061E071E00E94310A21E0892B09F0AC
:1008000020E0822F08956234C9F423B130E002C0A1
:10081000359527958A95E2F7922F91708091000186
:10082000813081F4911110C08FE39CE90197F1F7B9
:1008300000C000001092000181E00895633471F758
:1008400026B1E4CF913019F481E08093000180E07B
:100850000895DF92EF92FF920F931F93CF93DF9350
:1008600000D000D01F92CDB7DEB760E084E690E004
:100870000E942F0D8FE39CE90197F1F700C0000063
:1008800000E010E085E0D82EFE0131967F01F701EF
:100890008D2D11928A95E9F745E050E0B801C70126
:1008A0000E94250DEFE3FCE93197F1F700C000004D
:1008B0000B5F1F4FF0E004361F0749F710929502B7
:1008C000109294021092930210929202E6E9F2E0E2
:1008D00011928FE39CE90197F1F700C0000092E0CC
:1008E000EA3AF907A9F70F900F900F900F900F9029
:1008F000DF91CF911F910F91FF90EF90DF900895BE
:10090000CF93DF93CDB7DEB7C754D1090FB6F894B4
:10091000DEBF0FBECDBF27961FAE27970E946E0089
:100920000E94DD010E94C0000E9405020E94580240
:100930000E94610085E00E94E10150E1752E8E0168
:100940000F5C1F4F7E0121E2E20EF11C68EB262EA8
:1009500061E0362E6E0131E1C30ED11C77EC472EDB
:1009600071E0572ECE0101965C019E012A5B3F4F3C
:1009700041E060E08DE191E00E94D40280EC0E94B1
:100980002E0287E391E00E94B60262E487E00E94B3
:100990000304882309F45FC00E9453000E94CA0226
:1009A00080E80E942E0286E491E00E94B60244E6AE
:1009B000842E912CBE016F5B7F4F86E20E948101E5
:1009C00081118DC1CE018F5B9F4F0E94A9018111C2
:1009D00086C1CE018F5B9F4F0E94F703882309F4E5
:1009E0006BC10E94CA0280E80E942E0283E591E05A
:1009F0000E94B6020E9453009FEFE0E7F2E09150A0
:100A0000E040F040E1F700C000000E94CA0280E828
:100A10000E942E0282E691E00E94B6020E94290402
:100A20000E94CA0280E80E942E028EE691E00E9497
:100A3000B60280EC0E942E028DE791E00E94B60281
:100A40000E9453002FEF30E782E021503040804079
:100A5000E1F700C0000062E486E00E9403048823FE
:100A600009F4ABC06090950280919402680E809169
:100A70009302680E80919202680E09F45AC10E9496
:100A800053000E94CA0280E80E942E0286E491E090
:100A90000E94B60232E3832E912CBE016F5B7F4F22
:100AA00086E20E948101811126C1CE018F5B9F4F9A
:100AB0000E94A90181111FC1CE018F5B9F4F0E942F
:100AC000F703882309F417C10E94530023E0822E04
:100AD000912C0E94CA0280E80E942E02809194020A
:100AE0001F928F93809195021F928F93E6E9F1E018
:100AF000FF93EF931F927F921F930F930E945F0AC1
:100B0000C8010E94B60280EC0E942E0280919202DF
:100B10001F928F93809193021F928F9387EA91E0A7
:100B20009F938F931F927F92FF92EF920E945F0A92
:100B3000C7010E94B602FFEF23ED30E3F1502040E1
:100B40003040E1F700C000000E94CA0280E80E9425
:100B50002E0284E690E00E941D0D1F928F933F921B
:100B60002F921F927F92DF92CF920E945F0AC6015E
:100B70000E94B60280EC0E942E021F926F925F923A
:100B80004F921F927F92BF92AF920E945F0A0FB660
:100B9000F894DEBF0FBECDBFC5010E94B6029FEF25
:100BA000E3EDF0E39150E040F040E1F700C00000D9
:100BB00021E0821A910809F08CCF62E480E00E9463
:100BC0000304882309F44EC083E00E94E1010E94DF
:100BD000CA0280E80E942E0287EE91E00E94B602CF
:100BE000BE016F5B7F4F86E20E9481018111F8CFC9
:100BF000CE018F5B9F4F0E94A9018111F1CFCE01E1
:100C00008F5B9F4F0E94F703882309F40FC10E9456
:100C100053000E94CA0280E80E942E0283E591E000
:100C20000E94B6023FEF81EE94E031508040904048
:100C3000E1F700C000000E94CA0280E80E942E0274
:100C400086EF91E00E94B60280EC0E942E0283E0C3
:100C500092E00E94B60262E481E00E9403048823CD
:100C600009F483C062E481E00E940304882309F44C
:100C7000CBC284E690E00E941D0D8111F3C085E097
:100C80000E94E1010E94CA0280E80E942E0289E3CC
:100C900092E00E94B60280EC0E942E0283E492E071
:100CA0000E94B6023FEF81EE94E0315080409040C8
:100CB000E1F700C0000059CE0E94CA0280E80E94FD
:100CC0002E028AE891E00E94B6020E9453009FEF34
:100CD000E0E7F2E09150E040F040E1F7BACE8FE378
:100CE0009CE90197F1F700C0000091E0891A910892
:100CF00009F060CEB0CE8FE39CE90197F1F700C018
:100D0000000091E0891A910809F0C7CE0E94CA023A
:100D100080E80E942E028AE891E00E94B6020E94BA
:100D200053009FEFE0E7F2E09150E040F040E1F740
:100D300019C00E94CA0280E80E942E0281ED91E053
:100D40000E94B60280EC0E942E028CED91E00E947F
:100D5000B6020E945300EFEFF1EE24E0E150F040C4
:100D60002040E1F700C0000028CF80E80E942E025A
:100D700086EF91E00E94B60280EC0E942E0283E092
:100D800092E00E94B602BE016F5B7F4F86E20E9436
:100D90008101811160CFCE018F5B9F4F0E94A9011D
:100DA000811159CFCE018F5B9F4F0E94AE038111FD
:100DB00022C0CE018F5B9F4F0E944B030E94CA024C
:100DC00080E80E942E0286EF91E00E94B60280EC3D
:100DD0000E942E0281E192E00E94B60283E00E940E
:100DE000E101EFEFF1EE24E0E150F0402040E1F7C7
:100DF00000C0000030CF0E94CA0280E80E942E028C
:100E00008CE192E00E94B60280EC0E942E0284E205
:100E100092E00E94B60283E00E94E1013FEF81EE82
:100E200094E0315080409040E1F7E2CF0E94CA0246
:100E300080E80E942E028AE891E00E94B60280ECCF
:100E40000E942E028FE292E00E94B6020E9453009E
:100E5000EFEFF1EE24E0E150F0402040E1F700C078
:100E60000000B5CE0E9453000E94CA0280E80E9492
:100E70002E0286E491E00E94B602BE016F5B7F4FB6
:100E800086E20E9481018111F8CFCE018F5B9F4FD6
:100E90000E94A9018111F1CFCE018F5B9F4F0E946B
:100EA000F703882309F471C00E9453000E94CA020C
:100EB00080E80E942E0283E591E00E94B602EFEFE7
:100EC000F1EE24E0E150F0402040E1F700C00000E6
:100ED0000E94CA0280E80E942E0283E092E00E94F3
:100EE000B60280EC0E942E0282E592E00E94B602D9
:100EF000BE016F5B7F4F86E20E9481018111A2C01B
:100F0000CE018F5B9F4F0E94A90181119BC0CE0132
:100F10008F5B9F4F0E946E038F3F09F449C190E0A1
:100F2000FC01EA56FD4F4F018081811166C00E948D
:100F3000CA0280E80E942E028AE592E00E94B60270
:100F400083E00E94E10163E480E00E9403048823BF
:100F500079F1809195028F5F8093950285E00E94E0
:100F6000E1010E94CA0280E80E942E0286E692E019
:100F70000E94B60281E0F4018083FFEF21EE34E0AD
:100F8000F15020403040E1F74BC00E94CA0280E897
:100F90000E942E028AE891E00E94B6023FEF81EEA5
:100FA00094E0315080409040E1F700C000005CCFF9
:100FB00063E481E00E940304882331F0809194026D
:100FC0008F5F80939402CACF63E482E00E9403049F
:100FD000882331F0809193028F5F80939302BECF7C
:100FE00063E483E00E940304882309F4ACCF80917A
:100FF00092028F5F80939202B1CF0E94CA0280E872
:101000000E942E0287E792E00E94B60283E00E94CF
:10101000E1018FEF91EEE4E081509040E040E1F794
:1010200000C000000E94CA0280E80E942E0283E0F5
:1010300092E00E94B60280EC0E942E0282E592E0CD
:101040000E94B60262E486E00E940304882309F449
:101050004FCF0E94CA0280E80E942E0286E491E0EF
:101060000E94B60292E3892E912CBE016F5B7F4FE6
:1010700086E20E9481018111BBC0CE018F5B9F4F30
:101080000E94A9018111B4C0CE018F5B9F4F0E94C5
:10109000F703882309F499C00E94530080919502B8
:1010A00090919402890F90919302890F90919202EE
:1010B000890F28968FAF289784E690E00E941D0D37
:1010C000682E83E0882E912C0E94CA0280E80E943C
:1010D0002E02809194021F928F93809195021F920D
:1010E0008F9386E991E09F938F931F927F921F9336
:1010F0000F930E945F0AC8010E94B60280EC0E9412
:101100002E02809192021F928F93809193021F92E0
:101110008F9327EA31E03F932F931F927F92FF92A4
:10112000EF920E945F0AC7010E94B6029FEFE3EDB3
:10113000F0E39150E040F040E1F700C000000E9471
:10114000CA0280E80E942E021F926F923F922F9255
:101150001F927F92DF92CF920E945F0AC6010E9487
:10116000B60280EC0E942E021F9228962FAD28977F
:101170002F935F924F921F927F92BF92AF920E94E5
:101180005F0A0FB6F894DEBF0FBECDBFC5010E9447
:10119000B6029FEFE3EDF0E39150E040F040E1F75D
:1011A00000C0000021E0821A910809F08DCFDDCB4C
:1011B0000E94CA0280E80E942E0285E892E00E9406
:1011C000B60283E00E94E101D8CE0E94CA0280E804
:1011D0000E942E028AE891E00E94B6020E9453000B
:1011E0003FEF80E792E0315080409040E1F76ECED3
:1011F000EFE3FCE93197F1F700C00000F1E08F1A4E
:10120000910809F032CF64CE2FEF33EC89E0215002
:1012100030408040E1F74DCD0F931F93CF93DF9384
:101220008230910510F482E090E0E091AC02F09100
:10123000AD0230E020E0B0E0A0E0309799F4211555
:10124000310509F44AC0281B390B24303105D8F583
:101250008A819B816115710589F1FB0193838283EA
:10126000FE0111C040815181028113814817590745
:10127000E0F04817590799F4109761F012960C9313
:10128000129713961C933296CF01DF91CF911F9145
:101290000F9108950093AC021093AD02F4CF211585
:1012A000310551F04217530738F0A901DB019A01CB
:1012B000BD01DF01F801C1CFEF01F9CF9093AD027D
:1012C0008093AC02CDCFFE01E20FF31F8193919387
:1012D0002250310939832883D7CF2091AA02309137
:1012E000AB02232B41F42091080130910901309386
:1012F000AB022093AA02209106013091070121152B
:10130000310541F42DB73EB740910A0150910B01D0
:10131000241B350BE091AA02F091AB02E217F30710
:10132000A0F42E1B3F0B2817390778F0AC014E5F55
:101330005F4F2417350748F04E0F5F1F5093AB02E5
:101340004093AA02819391939FCFF0E0E0E09CCF7D
:10135000CF93DF930097E9F0FC013297138212825A
:10136000A091AC02B091AD02ED0130E020E0109709
:10137000A1F420813181820F931F2091AA02309124
:10138000AB022817390709F061C0F093AB02E09374
:10139000AA02DF91CF910895EA01CE17DF07E8F5A1
:1013A0004A815B819E0141155105B1F7E901FB833B
:1013B000EA8349915991C40FD51FEC17FD0761F4D9
:1013C000808191810296840F951FE901998388831A
:1013D000828193819B838A83F0E0E0E012968D9175
:1013E0009C9113970097B9F52D913C911197CD01E0
:1013F0000296820F931F2091AA023091AB02281708
:10140000390739F6309751F51092AD021092AC02BF
:10141000B093AB02A093AA02BCCFD383C283408116
:101420005181840F951FC817D90761F44E5F5F4F34
:1014300088819981480F591F518340838A819B81FC
:10144000938382832115310509F0B0CFF093AD026B
:10145000E093AC029ECFFD01DC01C0CF138212826B
:10146000D7CFFB01DC0104C08D910190801921F4DC
:1014700041505040C8F7881B990B0895FB01DC01CF
:101480000D900020E9F7119701900D920020E1F7EF
:101490000895FB01DC0101900D920020E1F7089511
:1014A000FB01DC014150504048F001900D920020BA
:1014B000C9F701C01D9241505040E0F70895AEE0D9
:1014C000B0E0E5E6FAE00C944B0D0D891E898F899A
:1014D000988D26E02C831A83098397FF02C080E051
:1014E00090E801979E838D83AE01455E5F4F698DC5
:1014F0007A8DCE0101960E948F0A4D815E8157FD43
:101500000AC02F813885421753070CF49A01020F45
:10151000131FF80110822E96E4E00C94670DABE0E7
:10152000B0E0E5E9FAE00C943D0D7C013B018A0155
:10153000FC0117821682838181FFC8C1CE0101960A
:101540005C01F7019381F30193FD859193FF8191F4
:101550003F01882309F453C1853239F493FD859105
:1015600093FF81913F01853229F4B70190E00E94F9
:101570007F0CE7CF912C212C312CFFE1F31538F0B3
:101580008B3211F190F4803209F1833229F137FC6A
:101590003CC020ED280F2A3050F536FE20C08AE0EE
:1015A000989E200D1124922E06C08D3291F080332A
:1015B00071F7689430F8F30193FD859193FF819161
:1015C0003F018111DACF21C0689431F8689432F874
:1015D000F2CF689433F8EFCF689434F8ECCFEAE0B8
:1015E0002E9E200D1124222E689435F8E4CF8E32E1
:1015F00029F436FC04C1689436F8DDCF8C3619F432
:10160000689437F8D8CF8836B1F2982F9F7D9554DB
:101610009330E0F08336A1F18337C1F1833509F0CF
:1016200063C02801F2E04F0E511CF801C080D18048
:10163000692D70E036FC02C06FEF7FEFC6010E949B
:10164000690C4C01689437F882010AC00C5F1F4F87
:10165000FFE3F98388248394912C6501E89437F89B
:1016600033FE2DC0522C8114910471F5552009F4DC
:1016700068CFB70180E290E00E947F0C5A94F6CFC9
:10168000F801808189830E5F1F4FE4CF2801F2E0CB
:101690004F0E511CF801C080D180692D70E036FCDE
:1016A00002C06FEF7FEFC6010E94740C4C018201F3
:1016B000D5CFB70180E290E00E947F0C2A942814D5
:1016C000190409F0B0F7CECFF60137FC859137FE4B
:1016D00081916F01B70190E00E947F0C51105A94E4
:1016E000F1E08F1A9108BFCF843619F0893609F0DE
:1016F00077C0F80137FE6BC0608171818281938170
:101700000C5F1F4FF32DFF763F2E97FF09C090957A
:101710008095709561957F4F8F4F9F4F689437F8F4
:101720002AE030E0A5010E94AF0CC82ECA188C2C0C
:10173000432C36FE0CC0E89440F8C91440F434FE43
:1017400005C032FC03C0F32DFE7E4F2E892C44FED3
:1017500095C0FE01EC0DF11D8081803309F087C03A
:10176000242D297E422E842D8870582E43FC95C04E
:1017700040FE8FC09C2C821418F42C0C922C9818CC
:1017800044FE91C0B70180E390E00E947F0C42FECE
:1017900009C088E790E041FE02C088E590E0B7010B
:1017A0000E947F0CC91408F48AC0CA94D12C9FEF00
:1017B000C91AD90ACA0CDB1CF60182916F01B70164
:1017C00090E00E947F0CAC14BD04B1F74FCF608154
:1017D0007181072E000C880B990B0E5F1F4F92CF63
:1017E000D32CE894D4F82AE030E0853739F1232D62
:1017F000297FD22E8F3601F148F48835A9F0F70100
:10180000868197812B96E2E10C94590D803749F03F
:101810008837A9F7D4FE02C06894D2F820E130E0FE
:101820000DC06894D4F8F6CF34FE03C0822F8660D2
:10183000D82E20E132E002C028E030E0F801D7FEE7
:101840000FC060817181828193810C5F1F4FA50160
:101850000E94AF0CC82ECA183D2CE89437F867CF09
:101860006081718190E080E00E5F1F4FF0CF42FCFD
:1018700002C0839478CF8394839475CF842D867827
:1018800009F471CFF6CFB70180E290E00E947F0C9F
:1018900083948214C0F3512C73CF522C58188214A5
:1018A00008F46ECFF8CF842D867809F47BCF8BE2D5
:1018B00041FE80E247FC8DE2B70190E071CFB701B5
:1018C00080E390E00E947F0C9A946CCF8FEF9FEFA3
:1018D00099CFFC010590615070400110D8F78095B8
:1018E00090958E0F9F1F0895FC01615070400190EC
:1018F0000110D8F7809590958E0F9F1F08950F9334
:101900001F93CF93DF93182F092FEB018B8181FD5C
:1019100009C01FEF0FEF812F902FDF91CF911F9103
:101920000F91089582FF14C02E813F818C819D818B
:10193000281739073CF4E881F981CF010196998392
:10194000888310838E819F8101969F838E83E3CF4E
:10195000E885F985812F0995892BA1F3DACFFA0162
:10196000AA27283051F1203181F1E8946F936E7FDE
:101970006E5F7F4F8F4F9F4FAF4FB1E03ED0B4E0CF
:101980003CD0670F781F891F9A1FA11D680F791F10
:101990008A1F911DA11D6A0F711D811D911DA11D21
:1019A00020D009F468943F912AE0269F1124301931
:1019B000305D3193DEF6CF010895462F4770405DCC
:1019C0004193B3E00FD0C9F7F6CF462F4F70405D7B
:1019D0004A3318F0495D31FD4052419302D0A9F7D6
:1019E000EACFB4E0A6959795879577956795BA95D0
:1019F000C9F700976105710508959B01AC010A2E96
:101A000006945795479537952795BA95C9F7620F6C
:101A1000731F841F951FA01D0895DC01CB01FC01DD
:101A2000F999FECF06C0F2BDE1BDF89A319600B437
:101A30000D9241505040B8F70895F999FECF92BDEC
:101A400081BDF89A992780B50895DC01CB0103C0C8
:101A50002D910E94300D41505040D0F70895262F0F
:101A6000F999FECF1FBA92BD81BD20BD0FB6F89483
:101A7000FA9AF99A0FBE019608952F923F924F92CB
:101A80005F926F927F928F929F92AF92BF92CF920E
:101A9000DF92EF92FF920F931F93CF93DF93CDB717
:101AA000DEB7CA1BDB0B0FB6F894DEBF0FBECDBF8F
:101AB00009942A88398848885F846E847D848C8460
:101AC0009B84AA84B984C884DF80EE80FD800C8169
:101AD0001B81AA81B981CE0FD11D0FB6F894DEBF4C
:0C1AE0000FBECDBFED010895F894FFCFBC
:101AEC0001A39B4228520000AE022000202020209F
:101AFC0020202020202020202020202000456C6544
:101B0C006374726F6E696320566F74696E67204DD3
:101B1C00616368696E6500507265737320726567E6
:101B2C006973746572005461702041646D696E2034
:101B3C0049440041646D696E205665726966696539
:101B4C006400506C6561736520776169740053792A
:101B5C007374656D205265736574656400537563A9
:101B6C006365737366756C6C790041757468204697
:101B7C0061696C6564002020413A25642020202096
:101B8C002020423A2564002020433A25642020205E
:101B9C00202020443A25640052656769737465728D
:101BAC006564203A256400566F746564203A256498
:101BBC00004E6F20526573756C747300546F204423
:101BCC006973706C6179005461702041646D696E49
:101BDC002052464944005265676973747261746996
:101BEC006F6E0054617020796F75722052464944B3
:101BFC00005375636365737366756C00416C726535
:101C0C006164790052656769737465726564005428
:101C1C00727920616761696E004E6F20566F746532
:101C2C0072730052656769737465722066697273AA
:101C3C007400546F20566F746500506C6561736549
:101C4C0020766F7465005468616E6B20666F72202D
:101C5C00766F74696E6700416C7265616479207689
:101C6C006F74656400496E76616C696420566F749C
:021C7C00650001
:00000001FF
