:100000000C9434000C9449000C9449000C94490061
:100010000C9449000C9449000C9449000C9449003C
:100020000C9449000C9449000C9449000C9449002C
:100030000C9449000C9449000C9449000C9449001C
:100040000C9449000C9449000C9449000C9449000C
:100050000C9449000C9449000C9449000C944900FC
:100060000C9449000C94490011241FBECFEFD8E036
:10007000DEBFCDBF11E0A0E0B1E0E8EDFBE002C0E3
:1000800005900D92A433B107D9F70E94DE020C94BB
:10009000EA050C9400008CE284B981E58CBD0895DA
:1000A0008EBD0DB407FEFDCF089580E00E94500084
:1000B0000DB407FEFDCF8EB50895CF93C62F2A98B5
:1000C000880F8E770E9450008C2F0E9450002A9A31
:1000D000CF9108956FE081E00C945D002A98880F1D
:1000E0008E7780680E9450000E9455002A9A0895D9
:1000F00084E10E946E00982F937029F4682F63604A
:1001000084E10C945D0008950E946A006DE88AE223
:100110000E945D006EE38BE20E945D006EE18CE266
:100120000E945D0060E08DE20E945D0060E485E178
:100130000E945D006DE381E10E945D000C947800F7
:10014000CF93DF93D82FC62F0E946E00682F6C2BA1
:100150008D2FDF91CF910C945D00CF93DF93D82F3B
:10016000C62F0E946E00C0956C2F68238D2FDF91E3
:10017000CF910C945D006F927F928F929F92AF927D
:10018000BF92CF92DF92EF92FF920F931F93CF9384
:10019000DF93D82F5B01642E7901680190E3792EFB
:1001A000C7E78C3039F020E1722EC2E18E3011F0B9
:1001B000712CC0E06C2F606882E00E945D0060E8F6
:1001C00084E00E94AD0060E88AE00E94A00060E048
:1001D00081E00E945D004501062D10E0C4018A19EE
:1001E0009B098017910790F16D2F81E00E945D00BF
:1001F000DC3021F460E88DE00E94A00080EDA82EA4
:1002000087E0B82E072D016084E00E946E00182F51
:10021000F1E0AF1AB10819F0802F8123A9F360E84B
:100220008DE00E94AD00AB28C1F412E0812FDF9178
:10023000CF911F910F91FF90EF90DF90CF90BF90E3
:10024000AF909F908F907F906F900895F40161918F
:100250004F0189E00E945D00C1CF86E00E946E00E0
:100260008B7119F7C1701C23DC3001F78AE00E9402
:100270006E00C82F8CE00E946E00982F9770E9F0F6
:100280008FE18C0F880F880F880F890FF60180830C
:10029000CC23C1F0C13108F0C0E16701D0E0C60154
:1002A0008E199F098C179D0708F0C0CF89E00E9426
:1002B0006E00F60181936F01F2CF8C2F880F880FAB
:1002C000880FE4CFC1E0E9CFEF92FF920F931F9325
:1002D000CF93DF931F92CDB7DEB7182F7B0167E076
:1002E0008DE00E945D00F70110838E010F5F1F4FAC
:1002F000970141E0B7018CE00E94BB00811103C06F
:100300009981903109F082E00F90DF91CF911F9198
:100310000F91FF90EF900895EF92FF920F931F932C
:10032000CF93DF931F92CDB7DEB77C0160E08DE005
:100330000E945D0083E9F701808380E281838E0162
:100340000F5F1F4F970142E0B7018CE00E94BB0096
:1003500081110EC0F70197012C5F3F4F90E0419152
:100360009427E217F307D9F7F7012481921382E06B
:100370000F90DF91CF911F910F91FF90EF90089513
:100380001092B90088E48093B800089594EA90939D
:10039000BC009091BC0097FFFCCF8093BB0084E829
:1003A0008093BC008091BC0087FFFCCF089584E956
:1003B0008093BC008091BC0084FDFCCF08958093A5
:1003C000BB0084E88093BC008091BC0087FFFCCF19
:1003D00008951F93CF93DF93C82F8EE40E94C60128
:1003E0001C2F107FD12FD8608D2F0E94DF01812F0D
:1003F0008C600E94DF018D2F0E94DF0180E1C89F89
:10040000E0011124DC2FD8608D2F0E94DF018C2F9A
:100410008C600E94DF018D2F0E94DF01DF91CF9160
:100420001F910C94D7012FEF80E792E0215080407C
:100430009040E1F700C0000083E00E94E9018FE1F5
:100440009EE40197F1F700C0000083E00E94E901FB
:1004500087E592E00197F1F700C0000083E00E9479
:10046000E90182E00E94E90188E20E94E9018CE052
:100470000E94E90186E00E94E90181E00E94E90111
:100480008FE39FE10197F1F700C0000008951F93EB
:10049000CF93DF93C82F8EE40E94C6011C2F107FDC
:1004A000D12FD9608D2F0E94DF01812F8D600E9496
:1004B000DF018D2F0E94DF0180E1C89FE001112440
:1004C000DC2FD9608D2F0E94DF018C2F8D600E9460
:1004D000DF018D2F0E94DF01DF91CF911F910C94DE
:1004E000D701CF93DF93EC018991811103C0DF9194
:1004F000CF9108950E944702F7CF811104C080E890
:10050000860F0C94E90180ECFBCF81E00E94E901A9
:100510008FE39FE10197F1F700C0000008950F936A
:100520001F93CF93DF93CDB7DEB761970FB6F894E3
:10053000DEBF0FBECDBFFC0184811F928F938381EC
:100540001F928F9382811F928F9381811F928F932D
:1005500080811F928F9385E091E09F938F938E010E
:100560000F5F1F4F1F930F930E9412030E9485027B
:1005700080E80E94E9018AE191E00E94710280EC2A
:100580000E94E901C8010E9471022FEF87EA91E6FB
:10059000215080409040E1F700C000000FB6F89471
:1005A000DEBF0FBECDBF61960FB6F894DEBF0FBEA3
:1005B000CDBFDF91CF911F910F910895CF93DF931E
:1005C00000D000D01F92CDB7DEB70E944B000E9432
:1005D00084000E9413020E94C0010E94850280E8EC
:1005E0000E94E90185E291E00E947102BE016F5F05
:1005F0007F4F86E20E9464018111F8CFCE010196FF
:100600000E948C018111F2CFCE0101960E948F02CF
:100610002FEF87EA91E6215080409040E1F700C03B
:100620000000DBCFAEE0B0E0E8E1F3E00C94C10500
:100630000D891E8986E08C831A8309838FEF9FE7DB
:100640009E838D83AE01475E5F4F6F89788DCE01AB
:1006500001960E9435032F813885020F131FF80180
:1006600010822E96E4E00C94DD05ABE0B0E0EBE305
:10067000F3E00C94B3057C013B018A01FC01178275
:100680001682838181FFC8C1CE0101965C01F7010A
:100690009381F30193FD859193FF81913F0188231D
:1006A00009F453C1853239F493FD859193FF81910B
:1006B0003F01853229F4B70190E00E942505E7CF7C
:1006C000912C212C312CFFE1F31538F08B3211F1F4
:1006D00090F4803209F1833229F137FC3CC020EDDF
:1006E000280F2A3050F536FE20C08AE0989E200D53
:1006F0001124922E06C08D3291F0803371F76894E8
:1007000030F8F30193FD859193FF81913F018111B1
:10071000DACF21C0689431F8689432F8F2CF689447
:1007200033F8EFCF689434F8ECCFEAE02E9E200D3A
:100730001124222E689435F8E4CF8E3229F436FC49
:1007400004C1689436F8DDCF8C3619F4689437F814
:10075000D8CF8836B1F2982F9F7D95549330E0F032
:100760008336A1F18337C1F1833509F063C02801D5
:10077000F2E04F0E511CF801C080D180692D70E06D
:1007800036FC02C06FEF7FEFC6010E940F054C01DF
:10079000689437F882010AC00C5F1F4FFFE3F983AA
:1007A00088248394912C6501E89437F833FE2DC09A
:1007B000522C8114910471F5552009F468CFB701CA
:1007C00080E290E00E9425055A94F6CFF8018081DE
:1007D00089830E5F1F4FE4CF2801F2E04F0E511CBA
:1007E000F801C080D180692D70E036FC02C06FEF47
:1007F0007FEFC6010E941A054C018201D5CFB701D7
:1008000080E290E00E9425052A942814190409F03A
:10081000B0F7CECFF60137FC859137FE81916F019D
:10082000B70190E00E94250551105A94F1E08F1A0B
:100830009108BFCF843619F0893609F077C0F801E6
:1008400037FE6BC060817181828193810C5F1F4F85
:10085000F32DFF763F2E97FF09C0909580957095F8
:1008600061957F4F8F4F9F4F689437F82AE030E0B3
:10087000A5010E945505C82ECA188C2C432C36FEA3
:100880000CC0E89440F8C91440F434FE05C032FCB2
:1008900003C0F32DFE7E4F2E892C44FE95C0FE0131
:1008A000EC0DF11D8081803309F087C0242D297E55
:1008B000422E842D8870582E43FC95C040FE8FC078
:1008C0009C2C821418F42C0C922C981844FE91C085
:1008D000B70180E390E00E94250542FE09C088E749
:1008E00090E041FE02C088E590E0B7010E94250536
:1008F000C91408F48AC0CA94D12C9FEFC91AD90A26
:10090000CA0CDB1CF60182916F01B70190E00E94D6
:100910002505AC14BD04B1F74FCF60817181072E5E
:10092000000C880B990B0E5F1F4F92CFD32CE894CD
:10093000D4F82AE030E0853739F1232D297FD22EF3
:100940008F3601F148F48835A9F0F7018681978147
:100950002B96E2E10C94CF05803749F08837A9F750
:10096000D4FE02C06894D2F820E130E00DC0689453
:10097000D4F8F6CF34FE03C0822F8660D82E20E153
:1009800032E002C028E030E0F801D7FE0FC06081FD
:100990007181828193810C5F1F4FA5010E945505D3
:1009A000C82ECA183D2CE89437F867CF6081718152
:1009B00090E080E00E5F1F4FF0CF42FC02C08394B6
:1009C00078CF8394839475CF842D867809F471CF82
:1009D000F6CFB70180E290E00E942505839482144F
:1009E000C0F3512C73CF522C5818821408F46ECFD8
:1009F000F8CF842D867809F47BCF8BE241FE80E22C
:100A000047FC8DE2B70190E071CFB70180E390E041
:100A10000E9425059A946CCF8FEF9FEF99CFFC0130
:100A20000590615070400110D8F7809590958E0F19
:100A30009F1F0895FC016150704001900110D8F78C
:100A4000809590958E0F9F1F08950F931F93CF93BE
:100A5000DF93182F092FEB018B8181FD09C01FEF58
:100A60000FEF812F902FDF91CF911F910F9108955C
:100A700082FF14C02E813F818C819D812817390708
:100A80003CF4E881F981CF01019699838883108332
:100A90008E819F8101969F838E83E3CFE885F985C0
:100AA000812F0995892BA1F3DACFFA01AA272830E3
:100AB00051F1203181F1E8946F936E7F6E5F7F4F2B
:100AC0008F4F9F4FAF4FB1E03ED0B4E03CD0670FA7
:100AD000781F891F9A1FA11D680F791F8A1F911DFA
:100AE000A11D6A0F711D811D911DA11D20D009F44A
:100AF00068943F912AE0269F11243019305D31938C
:100B0000DEF6CF010895462F4770405D4193B3E074
:100B10000FD0C9F7F6CF462F4F70405D4A3318F01B
:100B2000495D31FD4052419302D0A9F7EACFB4E0CC
:100B3000A6959795879577956795BA95C9F7009784
:100B40006105710508959B01AC010A2E0694579525
:100B5000479537952795BA95C9F7620F731F841F7C
:100B6000951FA01D08952F923F924F925F926F9212
:100B70007F928F929F92AF92BF92CF92DF92EF922D
:100B8000FF920F931F93CF93DF93CDB7DEB7CA1BAE
:100B9000DB0B0FB6F894DEBF0FBECDBF09942A88D9
:100BA000398848885F846E847D848C849B84AA8481
:100BB000B984C884DF80EE80FD800C811B81AA810E
:100BC000B981CE0FD11D0FB6F894DEBF0FBECDBFD9
:080BD000ED010895F894FFCF38
:100BD800DEADBEEF0125303258253032582530328F
:100BE8005825303258253032580041646D696E20DE
:100BF8005549443A005461702041646D696E204340
:040C080061726400B1
:00000001FF
